:100000000C9407080C942F080C942F080C942F08BC
:100010000C942F080C942F080C942F080C942F0884
:100020000C942F080C942F080C9472130C94E11369
:100030000C942F080C942F080C942F080C942F0864
:100040000C942F080C942F080C942F080C942F0854
:100050000C942F080C942F080C942F080C94131652
:100060000C942F080C942F080C942F080C942F0834
:100070000C942F080C942F080C942F080C942F0824
:100080000C945D160C942F080C942F080C942F08D8
:100090000C942F080C942F080C942F080C942F0804
:1000A0000C942F080C942F080C942F0800000000CB
:1000B000008040A0201028100808102810281010D8
:1000C000205020408080000000000080C0E0F0F858
:1000D000FCFCF8F0E0C08000000000000000000020
:1000E0000000000000000000000000000000000010
:1000F00000000000009068946B1C030000000000EA
:10010000000000000000000000000080C0E0F1F8E6
:10011000FCFEFFFFFFFFFFFFFFFFFFFFFFFFFFFFF3
:10012000FEFCF8F0E0C080000000000000000000CD
:100130000000000000000000000000000000057A40
:10014000A55AA050C0E040800000000000000080E0
:1001500040AE5FBF7FFFFFFFFFFFFFFFFFFFFFFF1F
:10016000FFFFFFFFFFFFFFFFFFFFFFFFFFFF7F3FDF
:100170001E0C000000000040E050A01880A458A40D
:1001800058A0400000000000000102010907091703
:1001900029A854B854A85656A956E956A8AA57AB48
:1001A000D7EFDF3F7FFFFFFFFFFFFFFFFFFF7FBFB7
:1001B000DF6FB75B55A856A954A8F87CB856A9A913
:1001C00056A956A956142C1E0D0601000000000069
:1001D000000000000000000000000000000000021D
:1001E000354AB54AB5B54A354B150B0A150A150BF4
:1001F0000F1F0F170B16150E170A154A4BB54A9508
:100200004A8501020100010000000000000000001A
:1002100000000000000000000000000000000000DE
:1002200000000000000000000000020102020D02B8
:1002300005020400000000000000000000000000B3
:1002400000000000010205000000000000000000A6
:10025000000000000000000000000000000000009E
:100260000040100802002A956A95956A956A040470
:1002700008106090606080609060609060D0E8D00E
:100280009068946894946A946A946868946890609A
:1002900060804080000000000000000000000000BE
:1002A0000000000000000000002D5080040C0C0035
:1002B000018282858201040682402D020505120D0D
:1002C00012ADFDFEFFFFFFFFFEFDF2AD5252AD523B
:1002D000AD52ADAD52AD52AD2D0205000102002070
:1002E000408000000000000000000000000000004E
:1002F00000006814000004081021230101100A41C5
:100300000000000000C0F0FCFEFFFFFFFFFFFFFF4A
:10031000FFFFFFFFFFFFFBD4CB142B14140B0403D0
:10032000800000000000000000000001020408102E
:100330006080000000000000000000055800000080
:100340000000000000000000A11A0438387E3F3F82
:100350003F3F3F3F3F3F3F3F3F3F7F3F3FBFBF7F2D
:100360003F7F3C3018040804020800000010000021
:10037000100010A000000000611A00000000000042
:100380000000000000010002D400000000C00804CA
:100390000000000000000003D0000000000000008A
:1003A00000C0140300010000000000000000000075
:1003B0000000000000000000040900090004020021
:1003C0000100000000000000000000000000000824
:1003D000041A001000000A000000000000000000E5
:1003E0001825002020180002010000000000000075
:1003F00000000000000000000000000000000000FD
:1004000000000000000000000000000000000000EC
:1004100000000000000000000000000000C0F0F834
:10042000FC14F7AC5EBFF0C000000000000000004C
:10043000000000000000000000000000000000803C
:10044000E0E0C0C0800000000000000000000000EC
:10045000000000000000000000000000000000009C
:1004600000000000000303030301010F1F1ACAB5B7
:100470004AB54A78FE03FAF8FAFBFAFBF8FAF8FAFA
:10048000FAF8FAF8FAF802FE4BA542B5800000002F
:10049000000000000000000000000000000000005C
:1004A000000000000000000000000000000000004C
:1004B000000000000000FFFFF72AD1D5FF00FFFF7A
:1004C000FFFFFFFFFFFFFFFFFFFFFFFFFFFF00FF3B
:1004D000D52AD52A2AD5000000000000000000001F
:1004E000000000000000000000000000000000000C
:1004F0000000000000000000000000000000070FE6
:100500000FFFFABAAF58A75757B757B757A71727CC
:10051000170707070707081FAA55AA55152A15A880
:1005200054A00000000000000000000000000000D7
:1005300000000000000000000000000000000000BB
:1005400000000000000000000F1F5F5704030003BD
:10055000A354AB54AB5400000000000000000000A6
:10056000142B140B00000004AB540000000000002A
:10057000000000000000000000000000000000007B
:10058000000000000000000000000000000000006B
:10059000000001052800000002050201020D1020E4
:1005A000000000000000000000000000000000004B
:1005B000000000000000000000000000000000003B
:1005C000000000000000000000008040C040E0A0EB
:1005D00050A850A850A85040A0408040800080E023
:1005E000E0F0F0F8F8F8FCFCF8FCFCF4FCF4ECACFF
:1005F00054AC54A854A85C58A850A060E0408000B7
:10060000000000000000000000000050A850ACAD49
:1006100053AD52AD52AD5256AA50A952AD52ADADE6
:1006200052ADF2FDFEFFFFFFFFFFFFFFFFFFFFFFE9
:10063000FFFFFFFFFFFFFFFFFFFEFDFAED52ADAD35
:1006400052AD52AD52AD5252A850A0000000000071
:1006500000000005020502020D020D020D02050D4B
:10066000020D12AD52AD5252AD52AF7FFFFFFFFFF0
:10067000FFFFFFFFFFFFFFFFFFFFFFFFFFFFFFFF8A
:10068000FFFFFFFF5FAD5252AD52AD52AD52ADAD67
:1006900052AD728000000000000000000000000069
:1006A0000000000000000000000000000102F9A9A5
:1006B00056A9562916295757AF5F3F3F3F3F3F3F47
:1006C0003F3F3F3F1F1F1F57AB57A956A956A901D0
:1006D000060106010609061629162916291628A854
:1006E00054A800000000000000000000000000000E
:1006F000008040C0F0B8D6F629020000000001A931
:10070000F6FCC080000000000080808080C0C0A88F
:1007100056A9562916090600000000000000000036
:1007200000000000000000FEFDF8F80000000000DE
:1007300000000000000000020100010000030300AF
:1007400000000000000000000003030201000000A0
:100750000607070706070602010000000000000068
:100760000000000000000000000000000006070775
:1007700007070000000000003E5B4F5B3E3E6B4FF2
:100780006B3E1C3E7C3E1C183C7E3C181C577D5723
:100790001C1C5E7F5E1C00183C1800FFE7C3E7FFCF
:1007A0000018241800FFE7DBE7FF30483A060E2662
:1007B00029792926407F050507407F05253F5A3CBA
:1007C000E73C5A7F3E1C1C08081C1C3E7F14227FFD
:1007D00022145F5F005F5F06097F017F00668995D5
:1007E0006A606060606094A2FFA29408047E0408BE
:1007F00010207E201008082A1C08081C2A08081E41
:10080000101010100C1E0C1E0C30383E3830060E26
:100810003E0E06000000000000005F000000070020
:100820000700147F147F14242A7F2A1223130864DC
:100830006236495620500008070300001C22410080
:100840000041221C002A1C7F1C2A08083E080800C0
:100850008070300008080808080000606000201060
:100860000804023E5149453E00427F40007249491A
:1008700049462141494D331814127F1027454545FB
:10088000393C4A494931412111090736494949361C
:10089000464949291E0000140000004034000000B1
:1008A00008142241141414141400412214080201E3
:1008B0005909063E415D594E7C1211127C7F49490F
:1008C00049363E414141227F4141413E7F494949AC
:1008D000417F090909013E414151737F0808087FA2
:1008E00000417F41002040413F017F081422417FA9
:1008F000404040407F021C027F7F0408107F3E4141
:1009000041413E7F090909063E4151215E7F091997
:100910002946264949493203017F01033F404040AF
:100920003F1F2040201F3F4038403F63140814639E
:1009300003047804036159494D43007F414141025A
:1009400004081020004141417F040201020440409C
:10095000404040000307080020545478407F28445A
:1009600044383844444428384444287F3854545444
:100970001800087E090218A4A49C787F0804047853
:1009800000447D40002040403D007F10284400008E
:10099000417F40007C047804787C08040478384463
:1009A000444438FC1824241818242418FC7C080417
:1009B0000408485454542404043F44243C40402038
:1009C0007C1C2040201C3C4030403C4428102844E3
:1009D0004C9090907C4464544C4400083641000094
:1009E00000770000004136080002010204023C26A4
:1009F00023263C1EA1A161123A4040207A3854546B
:100A000055592155557941215454784121555478EF
:100A10004020545579400C1E527212395555555983
:100A2000395454545939555454580000457C4100A8
:100A300002457D420001457C40F0292429F0F02840
:100A40002528F07C545545002054547C547C0A09D8
:100A50007F4932494949323248484832324A484847
:100A6000303A4141217A3A42402078009DA0A07D51
:100A700039444444393D4040403D3C24FF2424480F
:100A80007E4943662B2FFC2F2BFF0929F620C088B7
:100A90007E090320545479410000447D4130484888
:100AA0004A32384040227A007A0A0A727D0D1931A2
:100AB0007D2629292F28262929292630484D4020FE
:100AC000380808080808080808382F10C8ACBA2FDA
:100AD000102834FA00007B000008142A1422221483
:100AE0002A14089500220095AA005500AAAA55AA22
:100AF00055AA000000FF00101010FF00141414FF8E
:100B0000001010FF00FF1010F010F0141414FC007F
:100B10001414F700FF0000FF00FF1414F404FC1489
:100B20001417101F10101F101F1414141F00101082
:100B300010F0000000001F101010101F10101010F7
:100B4000F010000000FF101010101010101010FF17
:100B500010000000FF140000FF00FF00001F10172E
:100B60000000FC04F414141710171414F404F40017
:100B700000FF00F714141414141414F700F71414DD
:100B800014171410101F101F141414F4141010F064
:100B900010F000001F101F0000001F14000000FCD8
:100BA000140000F010F01010FF10FF141414FF14C4
:100BB0001010101F00000000F010FFFFFFFFFFF0FB
:100BC000F0F0F0F0FFFFFF0000000000FFFF0F0F4C
:100BD0000F0F0F38444438447C2A2A3E147E020208
:100BE0000606027E027E0263554941633844443C56
:100BF00004407E201E2006027E020299A5E7A599E8
:100C00001C2A492A1C4C7201724C304A4D4D30301E
:100C100048784830BC625A463D3E494949007E0109
:100C200001017E2A2A2A2A2A44445F444440514A28
:100C3000444040444A51400000FF0103E080FF006F
:100C40000008086B6B083612362436060F090F06AB
:100C5000000018180000001010003040FF010100D3
:100C60001F01011E00191D1712003C3C3C3C0000F6
:100C7000000000F0F89C8E8783878E9CF8F00000BF
:100C8000FEFF0303030303070EFCF80000FEFF034F
:100C900003030303070EFCF80000FFFF0000000041
:100CA000000000FFFF0000FEFF8383838383C7EE05
:100CB0007C380000F8FC0E07030303070EFCF80065
:100CC000003F7FE0C08080C0E07F3FFFFF01010167
:100CD00001010101FFFF0000FFFF0C0C0C0C1C3E8A
:100CE00077E3C100007FFFC0C0C0C0C0E0703F1FFD
:100CF00000001F3F70E0C0C0C0E0703F1F00007FD9
:100D0000FFC1C1C1C1C1E3773E1C00001F3F70E0BD
:100D1000C0C0C0E0703F1F000000000001FFFF01E5
:100D2000000000D5F08D14A1C881CFD9F1AF20000B
:100D300000010203C3050F045D02AC0000000002C5
:100D400000090F0000030401000C00000000000077
:100D50000000000000000000000000000000000093
:100D60000000000000000000000000000000000083
:100D70000000000000FCFCFCFCFCFCFCFCFC008017
:100D8000C0C0C0C0800000C0F0FCF0C00000000087
:100D90000000008080808080808080808080800053
:100DA0000000000000000000000000000000000043
:100DB0000000000000000000000000000000000033
:100DC0000000000E1F1F1F1F1FFFFFFFFFFF0F0F61
:100DD0000F0F8C4C4037373737374747870700FFAF
:100DE000FFFFFFFFFF00FAFB0B0B0B0B0A3030403D
:100DF0008000FFFFFFFF878787878787878707F345
:100E0000F3080C4646B39393232424180040E0F0E3
:100E1000F8FCFEFCF8F0E04000000000000000805C
:100E2000F680808000000000001FFFFFFF7F0000B1
:100E30000000FF0000008907070170708F0000FFAD
:100E4000FFFFFFFFFF00FFFF000000E76761616039
:100E500081810E11EF1FFFFF8F8F8F8F8F8F08E122
:100E6000E16166E6E6880808099191E10606F80165
:100E700083C7EFF7FBFDF8F0E0C080000000000042
:100E80000900000000C0F0F8FCFCFEFEFEFCFCF8CF
:100E9000F0C0071010101F010106080811171C03ED
:100EA0000F0F0F0F0F000F0F101010101111111155
:100EB00011111806090E0F0F0F0F0F0F0F0F0F084C
:100EC00009010608080901090109090806060100C7
:100ED000000103070F1F0F070301000000000000BF
:100EE000000000000001070F1F1F3F3F3F1F1F0FA3
:100EF00007010000000000000000000000000000EA
:100F000000000000000000000000000000000000E1
:100F100000000000000000000000000000000000D1
:100F200000000000000000000000000000000000C1
:100F30000000000000000000000000080B0002029A
:100F40000200000904000001020200000524001054
:100F500001052401010104240206052406000107FD
:100F600005810310004009040100020A0000000787
:100F70000502024000000705830240000004030947
:100F80000412010002EF02014041233680000101FA
:100F900002030141726475696E6F204C4C4300413D
:100FA000726475696E6F204C656F6E6172646F005C
:100FB00000000000240027002A002D003000040853
:100FC000020110408040102040804080080204014F
:100FD00080402010020110801020404020000000BE
:100FE00000250028002B002E003100040404040416
:100FF00003040502020202040302020202060606BC
:10100000060606040402020204040300EB1611247F
:101010001FBECFEFDAE0DEBFCDBF11E0A0E0B1E050
:10102000E0E5FFE302C005900D92A63EB107D9F7B7
:1010300026E0A6EEB1E001C01D92AC3EB207E1F79A
:1010400018E0C7E0D8E004C02197FE010E948C1F81
:10105000C630D107C9F70E9435170C94A61F0C940F
:1010600000004F925F926F927F928F929F92AF9209
:10107000BF92CF92DF92EF92FF920F931F93CF9385
:10108000DF9300D000D01F92CDB7DEB78C012A01CC
:101090003B01809119018530C1F08F3FF1F00F9035
:1010A0000F900F900F900F90DF91CF911F910F91A4
:1010B000FF90EF90DF90CF90BF90AF909F908F9078
:1010C0007F906F905F904F900895EAE0F0E18491F7
:1010D0008D838D8187FDE3CF48C085E08093190122
:1010E000EAE0F0E194919D839F3FC9F2913009F4C9
:1010F000CAC018F1933009F4E4C0943051F710924B
:10110000C0001092C1008091C10088608093C1002E
:101110008091C10081608093C100E0EFFFE0E49125
:10112000F0E0EE0FFF1FE352F04F85919491E3EC56
:10113000FFE0E491E0933D0618C014BC15BC84B5F3
:10114000826084BD85B5816085BDE0EFFFE0E491FC
:10115000F0E0EE0FFF1FE352F04F85919491E3EC26
:10116000FFE0E491E09342061D82E3ECFFE024916E
:10117000E0EFFFE08491882399F090E0880F991FB9
:10118000FC01E055F04FA591B491FC01E352F04F02
:10119000859194918FB7F894EC91E22BEC938FBFEB
:1011A0004801B12CA12C60E072E18AE790E0A50132
:1011B00098010E94151F29833A834B835C83690140
:1011C0007A0191E0C91AD108E108F1088D818D7F7B
:1011D00009F0EFC08FEFC816D104E104F10409F063
:1011E0000CF4DCC060E472E48FE090E0A5019801AB
:1011F0000E94151F69017A0191E0C91AD108E1081E
:10120000F1088D81823009F07EC09FEFC916D104AC
:10121000E104F104C1F0BCF060E970ED83E090E01E
:10122000A50198010E94151F69017A0181E0C81A81
:10123000D108E108F1089FEFC916D104E104F104D7
:1012400011F00CF04BC12FEF3FEFA90141145104F5
:101250006104710409F0D6C09D81913009F42CC15C
:101260000CF024C191111BCFC7BC20934F063093C3
:101270005006409351065093520680916E00826052
:1012800080936E000CCF10928000109281008091AC
:1012900081008860809381008091810081608093CB
:1012A0008100E0EFFFE0E491F0E0EE0FFF1FE3527A
:1012B000F04F85919491E3ECFFE0E491E0934106D7
:1012C00054CF10929000109291008091910088600C
:1012D0008093910080919100816080939100E0EF74
:1012E000FFE0E491F0E0EE0FFF1FE352F04F859135
:1012F00094919093400680933F06E3ECFFE0E491E5
:10130000E0933E0632CF8FEFC816D104E104F1041A
:1013100009F00CF44CC068E478EE81E090E0A5019F
:1013200098010E94151F69017A0191E0C91AD1083C
:10133000E108F1088D81882309F4F7C08FEFC81602
:10134000D104E104F10409F008F47DCF62E17AE709
:1013500080E090E0A50194010E94151F69017A01C7
:1013600081E0C81AD108E108F1089FEFC916D1043D
:10137000E104F10409F008F466CFC980DA80EB805B
:10138000FC808AE0F594E794D794C7948A95D1F7C6
:1013900081E0C81AD108E108F10855CF81E09D81AC
:1013A000911151CF95B5987F892B85BD4CCF82E0A7
:1013B000F6CF91E0C114D10481E0E806F10484F095
:1013C00068E478EE81E090E0A50198010E94151F85
:1013D00069017A0191E0C91AD108E108F10893E0A6
:1013E0008D818130E9F480918100887F892B809301
:1013F00081002FEF3FEFA9014114510461047104F2
:1014000009F45AC0D801AA0FBB1FA30192010E9480
:10141000341F28EE33E040E050E00E94471F1CCF0D
:101420008D81833001F580919100887F892B809395
:1014300091002FEF3FEFA9014114510461047104A1
:1014400009F7D0929900C0929800209347063093F4
:1014500048064093490650934A0680917100826085
:10146000809371001CCE8D81843009F0ECCE809188
:10147000C100887F892B8093C1002FEF3FEFA90126
:10148000411451046104710409F0BCCFC092CF0033
:1014900020934306309344064093450650934606F6
:1014A00080917200806480937200F9CD8D818330C9
:1014B00041F2843059F3F3CDD0928900C092880074
:1014C00020934B0630934C0640934D0650934E06A6
:1014D00080916F00826080936F00E1CD68E478EEC8
:1014E00081E090E0A50198010E94151F69017A0131
:1014F00091E0C91AD108E108F1088FEFC816D104AC
:10150000E104F10409F00CF49ECE64E274EF80E093
:1015100090E0A50194010E94151F69017A0191E0F4
:10152000C91AD108E108F10809CF83E09FEFC91675
:10153000D104E104F10409F00CF434CF62E17AE75C
:1015400080E090E0A50194010E94151F69017A01D5
:1015500081E0C81AD108E108F10884E09FEFC916BC
:10156000D104E104F10409F008F41CCFC980DA8049
:10157000EB80FC809AE0F594E794D794C7949A9511
:10158000D1F791E0C91AD108E108F10885E00ACF46
:10159000480F592F511D1416150684F580389105F2
:1015A0006CF597FF02C090E080E04138510514F0DF
:1015B00040E850E0481BFB01E770FF2721E001C035
:1015C000220FEA95EAF777FF02C0695F7F4FFB01C0
:1015D00033E0F595E7953A95E1F7F695FE2FEE277E
:1015E000F795E795E80FF91FE35CFD4F415030F0A8
:1015F0008191DF011197822B8C93F8CF0895EDE351
:10160000F2E0A0E0B8E000800EBC8111012C11973F
:10161000A0FDFDCF0192B9F70DB408958F929F926E
:10162000AF92BF92CF92DF92EF92FF920F931F93F0
:10163000CF93DF93FB01E00FF11D1E161F060CF088
:1016400084C0603471050CF080C0DB0177FF04C0FA
:10165000AA27BB27A61BB70BA770BB27FB0177FDEB
:101660003796C3E0F595E795CA95E1F777FF07C090
:10167000319768E070E0EB01CA1BDB0BDE01C02F85
:10168000C695C695C695D0E0077009F0219630E062
:10169000BF018A01AF015695542F442757954795AE
:1016A000840F951F835C9D4FAE01460F571FE8E0E6
:1016B000F0E05F01AA1ABB0A6F3FDFEF7D07C4F1BC
:1016C000D0E0C0E07C01E0E8EE0EF11C6F3F760751
:1016D00009F448C0F801EC0FFD1FE4916C01CC0E39
:1016E000DD1EF0E04F010A2E01C0880C0A94EAF7D3
:1016F000F6019080892880821097B1F067307105DB
:1017000099F0F801EC0FFD1FE4916701CC0EDD1E8E
:10171000F0E04F010A2C02C0959487940A94E2F7F6
:10172000F6019080892880822196C217D30774F22F
:101730006F5F7F4F020F131F80589F4F641775070D
:1017400021F06830710509F0B7CFDF91CF911F917B
:101750000F91FF90EF90DF90CF90BF90AF909F9050
:101760008F900895109701F3CCCFFC0180913C023B
:10177000882311F13FB7F89482E08093E90020912B
:10178000F200822F90E01816190614F481E090E020
:10179000882339F0289844E640933B024091F100B9
:1017A0004083222339F02091F200211103C02BE65F
:1017B0002093E8003FBF08958FEF9FEF08952FB764
:1017C000F89483E08093E9009091E800892F80727B
:1017D00095FF04C09091F20080E4891B2FBF08950B
:1017E0008091330281110DC082E080932F0284E04A
:1017F00080933002109232021092310281E0809385
:1018000033028FE292E00895CF93DF931F92CDB71A
:10181000DEB76983DC01ED91FC910280F381E02D5C
:1018200041E050E0BE016F5F7F4F09950F90DF915F
:10183000CF91089583E08093E9008091F20088239E
:1018400019F08AE38093E80008950E94DF0B90E08E
:101850000895CF93DF931F92CDB7DEB7FC01848547
:10186000958597FD08C02FEF3FEF358724870F90B0
:10187000DF91CF910895CE0101960E94B50B01979B
:1018800019F4898190E0F3CF8FEF9FEFF0CF0F93A2
:101890001F93CF93DF931F92CDB7DEB78C01FC016E
:1018A0008485958597FF0BC0CE0101960E94B50BEC
:1018B000019771F4898190E0F80195878487F80198
:1018C000848595850F90DF91CF911F910F91089599
:1018D0008FEF9FEFF1CFFC018485958597FD0BC0BD
:1018E0009FB7F89482E08093E9008091F2009FBF57
:1018F00090E0019608959FB7F89482E08093E90004
:101900008091F2009FBF90E008954091290250918C
:101910002A02209127023091280242175307B4F47B
:101920009091E8009570E1F39091E80092FD19C064
:101930008093F1008091290290912A0201968F7381
:101940009927892B19F48EEF8093E8008091290262
:1019500090912A02019690932A028093290281E0B5
:10196000089580E00895DF92EF92FF920F931F9306
:10197000CF93DF93D82E8A01EB017B01E40EF51E95
:10198000CE15DF0559F0D7FE12C0FE0184910E94EA
:10199000850C21968111F4CF0FEF1FEFC801DF9165
:1019A000CF911F910F91FF90EF90DF900895888164
:1019B000EECF0F931F93CF93DF931F92CDB7DEB778
:1019C00082E0898342E450E06BE37FE080E80E949C
:1019D000B30C0E94F00BDC0112960D911C910115C5
:1019E000110589F0D801ED91FC910280F381E02D81
:1019F000BE016F5F7F4FC801099597FD04C0F801D4
:101A000000851185ECCF89810F90DF91CF911F91D7
:101A10000F910895615030F02091F100FC01208376
:101A20000196F8CF289884E680933B0208953FB74B
:101A3000F8948091230290912402A0912502B09104
:101A4000260226B5A89B05C02F3F19F00196A11DBF
:101A5000B11D3FBFBA2FA92F982F8827BC01CD01F8
:101A6000620F711D811D911D42E0660F771F881F57
:101A7000991F4A95D1F708958F929F92AF92BF9286
:101A8000CF92DF92EF92FF926B017C010E94170DC3
:101A90004B015C01C114D104E104F104B9F00E94CE
:101AA000170D681979098A099B09683E73408105F9
:101AB000910580F321E0C21AD108E108F10888EE0F
:101AC000880E83E0981EA11CB11CE4CFFF90EF901C
:101AD000DF90CF90BF90AF909F908F9008958F929E
:101AE0009F92AF92BF92CF92DF92EF92FF920F93AD
:101AF0001F93CF93DF936C017B018A0180911801C2
:101B0000882309F45CC080913C02882309F457C003
:101B100080912E0280FF05C08091E000826080935A
:101B2000E000E801B12C8AEFA82E93E0892E2AE389
:101B3000922E209711F4BB20D9F10E94DF0B811166
:101B40000AC0AA94AA20D9F161E070E080E090E098
:101B50000E943C0DEECF8C171D0611F00CF08C2F5F
:101B60009FB7F8948092E9002091E80025FD02C01B
:101B70009FBFDFCF282F30E0C21BD30BF70181506E
:101B800020F041914093F100FACFE20EF31EBB200A
:101B900021F09092E800B12CEBCF8091E80085FD18
:101BA000E7CF9092E800BB24B394209709F3F3CFDA
:101BB0005D9884E680932D02101611063CF081E0BA
:101BC00090E0F6019383828310E000E0C801DF918A
:101BD000CF911F910F91FF90EF90DF90CF90BF902A
:101BE000AF909F908F9008952FB7F89460911F0247
:101BF0007091200280912102909122022FBF0895BE
:101C0000AF92BF92CF92DF92EF92FF920F931F930A
:101C1000CF93DF936C017B018B01040F151FEB0148
:101C20005E01AE18BF08C017D10759F06991D601FF
:101C3000ED91FC910190F081E02DC6010995892B71
:101C400079F7C501DF91CF911F910F91FF90EF9030
:101C5000DF90CF90BF90AF9008952D9A0895BC016A
:101C600090E080E00C943C0D8FB18095807F669B66
:101C700088601C9B8460089520E191E061FD94E000
:101C800060FD990F62FD9295687F269FD001112417
:101C9000A80FA35CBD4F8C9140FF03C0892B8C9390
:101CA000089590958923FBCF8038910528F46034FE
:101CB000710510F40C943C0E08952F923F924F92B0
:101CC0005F926F927F928F929F92AF92BF92CF92CC
:101CD000DF92EF92FF920F931F93CF93DF93EC016C
:101CE0008B017A016901C61AD70AD7FE03C0D194C5
:101CF000C194D10847018C1A9D0A97FE03C09194A4
:101D0000819491088C149D0454F49E2D8F2D79019B
:101D1000292F382F9C2F8D2FE801092F182FEC1613
:101D2000FD0654F4902F812F8901292F382F9C2FE5
:101D30008D2FE701E92EF82E17012C1A3D0A2901F3
:101D4000401A510A57FE03C0519441945108310181
:101D500037FE03C08FEF681A780A759467948FEF87
:101D6000021713070CF481E0A82E880FBB08EC16AD
:101D7000FD06A4F041E0BE01C8018C149D0414F0DE
:101D8000B801CE010E94540E6418750877FE04C095
:101D90000A0D1B1D620C731C2196E9CFDF91CF91B8
:101DA0001F910F91FF90EF90DF90CF90BF90AF9079
:101DB0009F908F907F906F905F904F903F902F906B
:101DC000089580E0EDE3F2E081118FEF002481932C
:101DD0008193819381930394D1F710920E02109214
:101DE0000D021092100210920F0208958F929F928E
:101DF000AF92BF92CF92DF92EF92FF920F931F9319
:101E0000CF93DF936D3089F0C0900D02D0900E0219
:101E10006A30D1F41092100210920F0288E0C80EBE
:101E2000D11CD0920E02C0920D0281E090E0DF91B1
:101E3000CF911F910F91FF90EF90DF90CF90BF90C7
:101E4000AF909F908F90089500910F021091100213
:101E5000E5E06E9FE0011124CD58D84F4801F12CE8
:101E6000F5E0E12CFF1629F0CE010196FE01E49089
:101E7000EC01B12CA12C4E2D4170B6016A0D7B1DD9
:101E8000C4010E94540EE694FFEFAF1ABF0A88E027
:101E9000A816B10481F7F394EFEF8E1A9E0AF6E0CC
:101EA000FF12DECF0A5F1F4F1093100200930F0244
:101EB000BCCF90911802982329F49091190298238D
:101EC00081E009F480E0089580E00C94FF0ADF923D
:101ED000EF92FF920F931F93CF93DF937C01D22E4B
:101EE0008B01040F111DEB0177FF02C0D0E0C0E0B1
:101EF000C8010134110514F080E490E0C817D90737
:101F00003CF44D2DBE01C7010E94540E2196F0CF26
:101F1000DF91CF911F910F91FF90EF90DF90089587
:101F2000EF92FF920F931F93CF93DF937C018B016E
:101F3000C42FD22F6034710510F40E94C80AB80172
:101F40006D0F711D615071096034710520F44C2FC3
:101F5000C7010E94C80A21E04D2FB801C7010E94A5
:101F6000670FC7018C0F911D21E04D2FB80101971C
:101F7000DF91CF911F910F91FF90EF900C94670F1D
:101F80002F923F924F925F926F927F928F929F9289
:101F9000AF92BF92CF92DF92EF92FF920F931F9377
:101FA000CF93DF93CDB7DEB72A970FB6F894DEBF95
:101FB0000FBECDBF7C018B0158874F8381309105C7
:101FC00009F466C1E4F4892B09F44DC02A960FB6D2
:101FD000F894DEBF0FBECDBFDF91CF911F910F915F
:101FE000FF90EF90DF90CF90BF90AF909F908F9039
:101FF0007F906F905F904F903F902F900895029741
:1020000009F479C183E0E816F10401F7780194E05E
:10201000E90EF11C2111ECC1CF80D884F4E0CF0E81
:10202000D11C480128E0820E911C9601A4016F8109
:102030007885C7010E945D0EAF80B88438E0A30E9A
:10204000B11C9501A701B601C4010E945D0E960165
:10205000A801B501C7010E945D0E2F813885A70137
:10206000B601C80190C1680194E0C90ED11C4F802F
:102070005884E4E04E0E511C222309F468C021E08C
:1020800049E06F817885C6010E94670F6F80788470
:10209000F3E06F0E711C22242394312CA4E0AA2EAD
:1020A000B12C28EF3FEF3A832983BDEF8B2E992483
:1020B0009A94B8018F819885681B790B7E836D8314
:1020C0002FEFE21AF20A32E0230E311C820C931C2D
:1020D0008A2D880F8F5F8B83C701049621E04B8187
:1020E000B2016A197B0978876F83800F911F0E9464
:1020F000670F21E0422DB301C6018A0D9B1D0E948E
:10210000670F21E04B816F8178858D819E81860DDF
:10211000971D0E94670F21E0422DB301C6018A1965
:102120009B090E94670FEA14FB040CF04FCF97FC49
:102130000AC091E0A91AB108E981FA813296FA83BE
:10214000E9838E0E9F1EF1E06F1A7108B9CF6F817F
:102150007885685F7F4F41E0C6010E94540E41E0E0
:102160006F817885C6010E94540E41E0B201C8011A
:1021700008960E94540E41E0B201C8010E94540E1C
:10218000380175E0670E711C180183E0280E311CC0
:10219000E1E0F0E0FE83ED8374E0A72EB12C28EFA0
:1021A0003FEF3C832B83EDEF8E2E99249A946F8121
:1021B0007885601B710B78876F83FFEFEF1AFF0A3A
:1021C0002D813E812E5F3F4F3E832D83820E931ED5
:1021D00041E0B2016A0D7B1D7A836983C3010E94CD
:1021E000540E41E069817A81C1010E94540E41E0A0
:1021F000C2018A199B099A838983BC01C3010E9489
:10220000540E41E069817A81C1010E94540E41E07F
:10221000EF81F885E60DF71DFA83E983BF0186019A
:102220000A0D1B1DC8010E94540E41E069817A818C
:1022300096012A193B093A832983C9010E94540E49
:1022400041E06F817885620D731D7A876987C801C7
:102250000E94540E41E069857A8589819A810E94A5
:10226000540EEA14FB040CF0B1CE97FC0AC071E0E6
:10227000A71AB1088B819C8102969C838B83880E60
:10228000991E9FEF691A790AE1E02E1A310895CF5D
:10229000222391F07B0178E0E70EF11CE016F106B5
:1022A00009F494CE21E048E06F817885C8010E944E
:1022B000670F0F5F1F4FF2CF28E048E06F817885EE
:1022C000C8012A960FB6F894DEBF0FBECDBFDF91CE
:1022D000CF911F910F91FF90EF90DF90CF90BF9023
:1022E000AF909F908F907F906F905F904F903F90B6
:1022F0002F900C94900F680188E0C80ED11C222307
:1023000039F1EF80F884E8E0F0E0FA83E98389812D
:102310009A8197FD019695958795A601481B590BC3
:1023200089819A81959587959701B701800F911FB3
:102330000E945D0E29813A81215031093A83298317
:102340003FEFE31AF30A69817A81672B01F73ECEEA
:10235000580174E0A70EB11CEF80F88488E0E80E05
:10236000F11C9701A601B701C8010E945D0E2F81E3
:102370003885A501B701C8010E945D0E9701A6012D
:102380006F817885C5012A960FB6F894DEBF0FBE1F
:10239000CDBFDF91CF911F910F91FF90EF90DF9014
:1023A000CF90BF90AF909F908F907F906F905F90F5
:1023B0004F903F902F900C945D0EC601801B910BA7
:1023C000043011050CF4C8016F817885600F711F0E
:1023D000A701480F591F9B01F701E81BF90BCF011B
:1023E0000E945D0E0F5F1F4F0830110531F7EECDD3
:1023F00010E000E090E080E027E0C22ED12CE4CF96
:10240000E1EFF1E084E190E09183808380E290E06D
:10241000938382838CE290E09583848388E390E0C9
:102420009783868381E08093F9010895089590E071
:1024300080E008958F929F92AF92BF920F931F9367
:10244000CF93DF93CDB7DEB7A1970FB6F894DEBF79
:102450000FBECDBF19A2423008F44AE08E010F5DD5
:102460001F4F842E912CB12CA12CA50194010E9408
:10247000471FE62FB901CA01EA3044F5E05DD801F3
:10248000EE938D01232B242B252B79F790E080E010
:10249000109769F0FD0101900020E9F73197AF0135
:1024A0004A1B5B0BBD0188EE96E00E94000EA196D0
:1024B0000FB6F894DEBF0FBECDBFDF91CF911F9155
:1024C0000F91BF90AF909F908F900895E95CD7CF08
:1024D000FC0101900020E9F73197AF01481B590B2F
:1024E000BC0188EE96E00C94000ECF92DF92EF9242
:1024F000FF92CF93DF936C01990FEE08FF08F7FE70
:1025000019C06DE288EE96E00E94F60EEC01662797
:102510007727CB016C197D098E099F094AE00E943B
:102520001A128C0F9D1FDF91CF91FF90EF90DF90DB
:10253000CF9008954AE0C701B601DF91CF91FF9097
:10254000EF90DF90CF900C941A120C94FF1E8F9294
:102550009F92AF92BF92CF92DF92EF92FF920F9332
:102560001F93CF93DF93CDB7DEB728970FB6F894BC
:10257000DEBF0FBECDBF7C0187E18E9D80018F9DA8
:10258000100D1124C8018D55994F6C0180E890E021
:10259000D6018D939C930E94A71EE4E08E2E912C71
:1025A000A12CB12CA50194010E94151FF60173877F
:1025B000628788E0EEE1F1E0DE01119601900D9274
:1025C0008A95E1F70E94A71EA50194010E94151F9C
:1025D000660F771FE1E0F0E0EC0FFD1FE60FF71F3D
:1025E0008081918198878F8383E090E091838083BD
:1025F0000E94A71ECD80DE8023E030E040E050E066
:102600000E94151F660F771FE1E0F0E0EC0FFD1F41
:10261000E60FF71F808191819E838D83D182C082D6
:102620000E94A71ECB80DC8022E030E040E050E03A
:102630000E94151F660F771FE1E0F0E0EC0FFD1F11
:10264000E60FF71F808191819C838B83D182C082AA
:10265000FE01319698012E54394F81E090E041916E
:102660005191DC01AA0FBB1FA00FB11FAD55B94F8F
:102670004D935C93D9011D929D0113961C92019676
:102680008530910561F727E12E9DC0012F9D900DAA
:102690001124DC01AD55B94F1A96ED91FC911B97B1
:1026A0003196EE0FFF1FE80FF91FED55F94F80919E
:1026B000090190910A01918380831E961C922896AD
:1026C0000FB6F894DEBF0FBECDBFDF91CF911F9143
:1026D0000F91FF90EF90DF90CF90BF90AF909F90C1
:1026E0008F9008951F920F920FB60F9211248F931F
:1026F0009F938091E1009091E100937F9093E1009E
:1027000083FF0FC01092E90091E09093EB001092CC
:10271000EC0092E39093ED0010923C0298E09093CD
:10272000F00082FF22C093E09093E9009091F200C4
:10273000992319F09AE39093E80090912D02992340
:1027400041F090912D02915090932D02911101C072
:102750005D9A90913B02992341F090913B029150F8
:1027600090933B02911101C0289A84FF18C0809178
:10277000E2008E7E81608093E2008091E1008F7E96
:102780008093E10080912E028E7E806180932E02E4
:102790009F918F910F900FBE0F901F90189580FF03
:1027A000F7CF8091E2008E7E80618093E20080917D
:1027B000E1008E7E8093E10080912E028E7E81600A
:1027C000E5CF1F920F920FB60F921124CF92DF9296
:1027D000EF92FF920F931F932F933F934F935F932B
:1027E0006F937F938F939F93AF93BF93EF93FF93D9
:1027F000CF93DF93CDB7DEB76C97DEBFCDBF10921E
:10280000E9008091E80083FF25C068E0CE0145968D
:102810000E940A0D82EF8093E8008D8987FF39C0FE
:102820009091E80090FFFCCF982F907609F034C18A
:102830009E894F89588D2F89F88C911131C080382D
:1028400061F580912C028093F1001092F1008EEFDF
:102850008093E8006C960FB6F894DEBF0FBECDBF34
:10286000DF91CF91FF91EF91BF91AF919F918F91A8
:102870007F916F915F914F913F912F911F910F9198
:10288000FF90EF90DF90CF900F900FBE0F901F90B2
:1028900018959EEF9093E800C7CF1092F100D5CF26
:1028A000913059F48111D3CF4130510581F6809197
:1028B0002C028D7F80932C02CACF933049F4811172
:1028C000C6CF4130510519F680912C028260F2CFBB
:1028D000953041F48091E80080FFFCCF2068209380
:1028E000E300B5CF963009F0A9C00B8D1C8D22E016
:1028F0001092E90010922A0210922902F2122EC0C0
:1029000010922802109227020E94D90C1F8299E08F
:102910009983FA8291E09E8390EA98879AEF99874B
:102920002091290230912A02275F3F4F3C832B835D
:102930008D831092E90010922A02109229021093BE
:1029400028020093270249E050E0BE016F5F7F4FED
:1029500080E00E94B30C0E94D90C79CF109328021A
:10296000009327020E94F00BDC0112960D911C913E
:102970000115110509F451C1D801ED91FC910480B4
:10298000F581E02DBE016B5E7F4FC8010995009770
:1029900009F03EC1F80100851185EACFF3E0FF128E
:1029A0000EC08F89882309F440C0823061F440E86A
:1029B00060E18FE99FE00E94B816811148CF81E263
:1029C0008093EB0047CF813029F440E86BE083E946
:1029D0009FE0F1CF833099F70E94F00BDC01129653
:1029E000ED90FC908E010F5F1F4F6801E114F10420
:1029F00079F0D701ED91FC910680F781E02DB801C7
:102A0000C7010995080F111DF701E084F184EECF8D
:102A1000D8011C92F60101900020E9F73197BF011F
:102A20006C197D0940E0C601C6CF6DE77FE0FB0170
:102A3000449150E080E80E94B30C09CF973009F42C
:102A4000BECF983021F481E08093F10000CF99301F
:102A500009F0FDCE837009F0B2CFE7E6F1E081E046
:102A600031E096E32191222371F08093E9003093C5
:102A7000EB00DF0111972C912093EC009093ED0077
:102A80008F5F873079F78EE78093EA001092EA0033
:102A90008F8980933C02DBCE8B8D9C8D1092E90058
:102AA00010922A0210922902909328028093270202
:102AB000898D811192C08E899D89913A49F4813224
:102AC00009F07DCF47E050E061E171E080E0B3CFF5
:102AD000913209F074CF833269F48F89988DB0E018
:102AE000A0E080930D0190930E01A0930F01B0938D
:102AF0001001ADCE803269F48091E80082FFFCCFF6
:102B000067E081E191E00E940A0D8BEF8093E8007D
:102B10009ECE823209F09BCE8F8980931801EEEF12
:102B2000FFE7859194918B3F9C4D51F1E0E0F8E0F7
:102B30008091110190911201A0911301B0911401A3
:102B4000803B9440A105B105F1F48091180180FD0E
:102B50001AC0EE3F8AE0F80789F587E797E7918387
:102B600080838091600080932B0288E19BE00FB608
:102B7000F894A895809360000FBE9093600067CE94
:102B8000EEEFFAE0D5CF808191818737974709F042
:102B90005ECEA895809160008861809360008091EE
:102BA0002B0280936000EE3F2AE0F20789F08091CB
:102BB000FE0A9091FF0A9183808349CE80819181A2
:102BC0008737980751F29093FF0A8093FE0AC5CF8A
:102BD0001092FF0A1092FE0A3ACE0E94F00BDC011E
:102BE00012960D911C910115110509F4E8CED8013A
:102BF000ED91FC910190F081E02DBE016B5E7F4F65
:102C0000C8010995811123CEF80100851185EBCF0C
:102C1000181619060CF41BCED2CEF1E0FF12BECE70
:102C200061E87FE004CF1F920F920FB60F9211243C
:102C30002F933F938F939F93AF93BF9380911F02E6
:102C400090912002A0912102B091220230911E02A7
:102C500023E0230F2D3758F50196A11DB11D2093B8
:102C60001E0280931F0290932002A0932102B09332
:102C700022028091230290912402A0912502B0911A
:102C800026020196A11DB11D809323029093240278
:102C9000A0932502B0932602BF91AF919F918F918F
:102CA0003F912F910F900FBE0F901F90189526E81F
:102CB000230F0296A11DB11DD2CF1F920F920FB606
:102CC0000F9211248F939F93AF93BF93EF93FF9332
:102CD0008091470690914806A0914906B0914A0616
:102CE000892B8A2B8B2BA1F190913E06E0913F0618
:102CF000F0914006808189278083809147069091DA
:102D00004806A0914906B0914A06181619061A06F7
:102D10001B069CF48091470690914806A0914906B5
:102D2000B0914A060197A109B10980934706909393
:102D30004806A0934906B0934A06FF91EF91BF91D0
:102D4000AF919F918F910F900FBE0F901F9018958C
:102D5000809171008D7F8093710080913E06E0919B
:102D60003F06F09140069081809589238083E5CFCE
:102D7000EF92FF920F931F93CF93DF93F82E192FAB
:102D8000E62E042F81E0860F880F0E94850C83E0D9
:102D90000E94850CCF2DD12FEC0EFD2EF11CCE15EF
:102DA000DF05B9F007FF13C0FE0184910E94850C76
:102DB000182F80E00E94850C812321968111EFCF8E
:102DC000DF91CF911F910F91FF90EF90089588812F
:102DD000EDCF81E0F5CFE3E5F6E01382128288EED5
:102DE00093E0A0E0B0E084839583A683B78381E776
:102DF00091E0918380838FEF9FEF95878487E8EE42
:102E0000F6E01382128283E891E091838083E3EA03
:102E1000F6E089E190E09587848716861786108A08
:102E2000118A128A138A148A158A168A94A383A394
:102E300015A216A217A210A611A612A613A614A6D2
:102E400015A693AF82AF14AE1092E0061092E10681
:102E50001092E2061092E3061092E4061092E50644
:102E60001092E6061092E7060895CF93DF93CDB750
:102E7000DEB767970FB6F894DEBF0FBECDBF78946C
:102E800084B5826084BD84B5816084BD85B582606F
:102E900085BD85B5816085BD80916E008160809320
:102EA0006E00109281008091810082608093810089
:102EB0008091810081608093810080918000816099
:102EC0008093800080919100826080939100809136
:102ED0009100816080939100809190008160809347
:102EE00090008091C10084608093C1008091C100F6
:102EF00082608093C1008091C10081608093C10095
:102F00008091C30081608093C3008091C000826083
:102F10008093C0008091C20081608093C200809144
:102F20007A00846080937A0080917A008260809336
:102F30007A0080917A00816080937A0080917A0093
:102F4000806880937A0010923C0210922C021092BA
:102F50002E028091D70081608093D70080EA809311
:102F6000D80089B5806189BD89B5826089BD09B401
:102F700000FEFDCF61E070E080E090E00E943C0D3B
:102F80008091D8008F7C80618093D8008091E00090
:102F9000807F8093E0008091E1008E7E8093E1004D
:102FA0008DE08093E200559A209A81EC80937C001A
:102FB00085B1806F85B984B1877E84B984B1876E0D
:102FC00084B95E9A5F988AB1806D8AB9769A6E9854
:102FD00081B3806F81BB899880B38D7080BB80E5A1
:102FE0008CBD81E08DBD85E090E00E942F0E5F9A40
:102FF00085E090E00E942F0E5E985C98E3E2FDE091
:1030000084918EBD00000DB407FEFDCF31962DE0FA
:10301000E033F207A9F75C9A81E88093640080911D
:1030200065008160809365000E94640F0E94340EE9
:1030300087FF15C05C9885EA8EBD00000DB407FEC1
:10304000FDCF5C9A2E982F982D9880916400806215
:103050008093640081E083BF889513BEFCCF0E94FB
:10306000340E82FF48C02D980E94340E8478843834
:10307000E1F40E942D0E88EC90E00E942F0E2F9814
:1030800082E090E00E94FF1E8F3F29F06FEF82E008
:1030900090E00E94071F84EF91E00E942F0E2F9A6C
:1030A0000E94340E84788438D9F30E94340E8471DF
:1030B0008431E1F40E942D0E88EC90E00E942F0EE6
:1030C0002E9882E090E00E94FF1E882329F060E0A5
:1030D00082E090E00E94071F84EF91E00E942F0E93
:1030E0002E9A0E94340E84718431D9F388EC90E0DA
:1030F0000E942F0EB4CF0E942D0E82E090E00E941D
:10310000A512882309F465C03E9A3F9A81E090E0B9
:103110000E94A512182F147081FF0EC011112E9855
:1031200051EFE52EFF24FA940E94340E86FF54C01E
:103130002E9A2F9A0E942D0E82E390E00E942F0E6D
:103140000E94340E8111F8CF80E18093000182E06B
:1031500090E090930A018093090190E080E00E9442
:10316000A71280E890E09093A4068093A30681E0E4
:1031700090E00E94A71284EE90E09093BB068093AB
:10318000BA0682E090E00E94A71288E491E0909352
:10319000D2068093D1060E9400122DE0222E312CFF
:1031A00032E0432E512CCC24C394D12C94E0692ED0
:1031B000712C0E94F40D8091ED01882309F469C0FF
:1031C0001092ED0180E090E0892B99F30E940000BD
:1031D000EDCF3E983F989ACF112331F084E0E81666
:1031E000F10411F42E9A2F9881E00E94FF0A00E169
:1031F00028E543E75CE0B70184E190E00E940E0B14
:103200000E94640F8FE090E00E942F0E9FEFE91A5A
:10321000F90AE9E1EE16F10409F086CF112311F065
:103220002F9A2D9880E991E00E942F0E0E942D0E7A
:1032300081E090E00E94A51280FF7ECF8AE090E0BE
:103240000E94A5129FEF980F9E3F08F075CF22E3D2
:1032500030E03093100220930F0228E330E03093E7
:103260000E0220930D020BE010E0682F88EE96E02E
:103270000E94F60EC8010E94A5120F5F1F4F013178
:10328000110599F70E94640F88EE93E00E942F0EBB
:1032900053CF8091EE01F62FF81B8F2F90910001F4
:1032A000F91748F48F5F891708F08CCF81E083BF4E
:1032B000889513BE87CF11E01093ED016093EE0166
:1032C0008091EB019091EC0101969093EC01809339
:1032D000EB0180911902809318020E94340E8093B2
:1032E000190280911C0290911D028130910509F410
:1032F0007DC308F43FC2029709F064CF80910C01AE
:10330000882309F4C4C48091F901811102C00E948C
:103310000012009105011091060110930401009321
:103320000301F801EE0FFF1FEF50FE4F80819181E6
:10333000049790930201809301010E94340E87FF4D
:10334000A0C48091F00181110CC081E08093F00154
:103350001016110634F4C80101979093060180936A
:1033600005010E94340E84FF8FC48091EF0181110A
:103370000FC0809105019091060121E02093EF019B
:10338000833091052CF401969093060180930501FA
:103390008091050190910601801B910B97FF03C05E
:1033A0009195819591099093FB018093FA0103EA2D
:1033B00016E0F12CE12CE7E18E2E99249394F5E0B0
:1033C000AF2EB12CF801408151812091070130913D
:1033D0000801421B530B51834083868581115CC0D9
:1033E0002091050130910601F9013196EE0FFF1F82
:1033F0008E9CC0018F9C900D1124E80FF91FED5594
:10340000F94F608171818091090190910A016817DB
:10341000790731F5F8018485958597FD0196959595
:103420008795840F951F46970597D0F48E9CF001E1
:103430008F9CF00D1124ED55F94FE20FF31F978685
:103440008389811109C0938A40E550E060E070E013
:103450008BE092E00E943108F801868581111CC042
:10346000F8018081918124853585820F931F4497CF
:103470009CF496868091FC019091FD0101969093B9
:10348000FD018093FC01B5010E94781F6F5F7F4FA3
:103490007093080160930701F801848595859195E3
:1034A00081959109208131812817390704F5C701D9
:1034B0000E94A7122091A3063091A4068091BA061B
:1034C0009091BB06821793070CF4C90197FF02C0C5
:1034D00090E080E02091D1063091D206281739077C
:1034E0000CF49C012C593F4FF8013183208387E174
:1034F000F801DE01119601900D928A95E1F7F8012D
:10350000808191818C31910534F524853585820F38
:10351000931F459704F1E0910501F0910601319662
:10352000EE0FFF1F81E090E08C0F9D1FE80FF91F49
:10353000208131818091090190910A012817390772
:1035400051F010920C0148EC50E060E070E08CED1E
:1035500090E00E9431089FEFE91AF90A095E1F4FB7
:10356000E3E0EE16F10409F02DCF80910701909170
:1035700008019093FB018093FA010E94E10E4091B3
:1035800001015091020120E064E170E080910901A5
:1035900090910A010E94C00F03EA16E0F8018485A9
:1035A00095857C01F8E0EF1AF108F7FE04C07C0174
:1035B00027E0E21AF108F594E794F80180819181FF
:1035C000E80EF91E20E1822E912CAA24A394B12C9E
:1035D000D801AA0DBB1DF501EE0FFF1FE00FF11F73
:1035E0001E962C91A401B701808191810E94C00F89
:1035F000FFEFAF1ABF0A2CE0820E911C85E0A816DF
:10360000B10431F7095E1F4F96E0083E190731F605
:103610001092100210920F0210920E0210920D02E0
:1036200080EC91E00E9468128091FC019091FD0174
:103630000E94751280E590E09093100280930F0233
:1036400010920E0210920D0289EC91E00E94681215
:103650008091FA019091FB010E94751280910C01FA
:10366000811185C08091FE01811135C081E0809378
:10367000FE0146E950E060E070E088E891E00E94D9
:10368000310860EA70E080E090E00E943C0D46E97D
:1036900050E060E070E08DE591E00E94310860EA62
:1036A00070E080E090E00E943C0D46E950E060E070
:1036B00070E08AE491E00E94310860EA70E080E006
:1036C00090E00E943C0D4CE251E060E070E086E248
:1036D00091E00E9431080EE010E020E048E26CE04A
:1036E00070E0C8010E94670F0F5F1F4F023711057E
:1036F000A1F728E244E66CE070E08EE090E00E94E2
:10370000900F8EE290E09093100280930F0281E17F
:1037100090E090930E0280930D0281ED91E00E9463
:10372000681282E290E09093100280930F028DE184
:1037300090E090930E0280930D0280EC91E00E9445
:1037400068128091FC019091FD010E9475128CE13C
:1037500090E09093100280930F0287E290E09093A4
:103760000E0280930D0288ED91E00E9468120E9483
:10377000640F28CD0E94E10E08E220E64BE55DE0F3
:1037800065E070E080E190E00E940E0B80E190E047
:103790009093100280930F0282E390E090930E02C8
:1037A00080930D028BE891E00E94681280911702CD
:1037B000811117C0109317020E94F40D6093130239
:1037C00070931402809315029093160210921202C5
:1037D0001092110248EC50E060E070E08BE092E063
:1037E00052C00E94F40DE0901302F0901402009178
:1037F000150210911602A0911102B0911202E6E496
:10380000F1E030E020E02A173B076CF481909190C2
:10381000092C000CAA08BB08E80CF91C0A1D1B1D8A
:103820002F5F3F4FF0CF4B015C018E189F08A00A1D
:10383000B10AFD01EE0FFF1FEA5BFE4F408151818F
:10384000052E000C660B770B84169506A606B706A8
:10385000E0F0CD0101969093120280931102803125
:1038600091050CF059C0880F991FFC01EA5BFE4FCF
:1038700040815181052E000C660B770B8A5D9E4FAF
:10388000FC01808191810E9431080E94640F88E0D0
:103890000E94590F882309F495CC10921702809149
:1038A0001901853089F4EAE0F0E1E4918FEF80932B
:1038B0001901E13009F442C008F43DC0E33009F4D5
:1038C00043C0E43009F446C0E1E4FDE02491E3ECB8
:1038D000FFE09491E0EFFFE08491882309F454C065
:1038E000222309F442C021502F3008F03EC0E22FBD
:1038F000F0E0E358F34E0C948C1FD11CD51CB01C87
:10390000C91CCD1CB51CB51CB51CD81CDE1CE21C8A
:10391000E61CEC1CB51CF01C109212021092110255
:103920000E94F40D609313027093140280931502A9
:10393000909316024FCF10926E00C6CF80916F0009
:103940008D7F80936F00C0CF809171008D7F8093B9
:103950007100BACF809172008F7B80937200B4CFD8
:10396000209180002F7720938000E82FF0E0EE0F69
:10397000FF1FE352F04FA591B4918FB7F8942C91AB
:10398000909592239C938FBFD0921D02C0921C02EF
:1039900019CC209180002F7DE6CF20918000277FD9
:1039A000E2CF24B52F7724BDE0CF24B52F7DFBCF08
:1039B000209190002F7720939000D7CF20919000F6
:1039C0002F7DF9CF20919000277FF5CF2091C00067
:1039D0002F772093C000C9CF2091C0002F7DF9CF51
:1039E0002091C200277F2093C200BFCF0E94E10E2A
:1039F0003092100220920F0250920E0240920D025D
:103A00008CE991E00E9468128091050281110AC040
:103A100080911A0290911B029093040280930302FA
:103A2000109305020E94F40D0091FF011091000215
:103A30002091010230910202601B710B820B930BEB
:103A4000613273408105910580F080910B0191E016
:103A5000892780930B010E94F40D6093FF017093FE
:103A60000002809301029093020280910B0188234F
:103A700009F446C041E067E270E08AE090E00E940D
:103A80003C0E41E066E270E08BE090E00E943C0E6C
:103A900041E068E270E08BE090E00E943C0E41E083
:103AA00065E270E08CE090E00E943C0E41E069E24B
:103AB00070E08CE090E00E943C0E41E067E270E034
:103AC00082E790E00E943C0E41E066E270E081E710
:103AD00090E00E943C0E41E068E270E081E790E0F7
:103AE0000E943C0E41E065E270E080E790E00E94B9
:103AF0003C0E41E069E270E080E790E00E943C0EFD
:103B0000E0901A02F0901B02F701EE0FFF1FEC5C31
:103B1000F24F459154910EE228E469E070E08CE1A7
:103B200090E00E940E0B8091030290910402E8162F
:103B3000F90661F04CE350E060E070E08BE092E069
:103B40000E943108F0920402E092030230921002C7
:103B500020920F0287E390E090930E0280930D0273
:103B60008EEA91E00E9468120E94640F80E20E9437
:103B7000590F882361F080911A0290911B020396DD
:103B8000B3010E94781F90931B0280931A0280E475
:103B90000E94590F882361F080911A0290911B02B4
:103BA0000196B3010E94781F90931B0280931A0222
:103BB00084E00E94590F882309F404CB44E650E0C6
:103BC00060E070E083E992E00E94310866E970E00D
:103BD00080E090E00E943C0DE0911A02F0911B02FF
:103BE000E05DF24FE491F0E0F0930A01E093090107
:103BF00081E080930C011092FE011092FD01109261
:103C0000FC01D0920801C0920701D0920601C09237
:103C10000501D0920401C09203011092FB011092A1
:103C2000FA011092F9010E9400128091F301909123
:103C3000F4010497909302018093010190E080E0E9
:103C40000E94A712E0E8F0E0F093A406E093A30638
:103C500081E090E00E94A71284EE90E09093BB0672
:103C60008093BA0682E090E00E94A712E8E4F1E0B7
:103C7000F093D206E093D10650921D0240921C02AE
:103C8000A1CA1092F0016DCB1092EF0181CB88E0B8
:103C90000E94590F882321F0D0921D02C0921C026D
:103CA00084E00E94590F882309F467CC10921D020A
:103CB00010921C0262CC8F929F92AF92BF92CF92D1
:103CC000DF92EF92FF92CF93DF93EC0168817981CD
:103CD0008A819B81611571058105910521F464E25A
:103CE00079ED8BE597E02DE133EF41E050E00E9464
:103CF000151F49015A019B01AC01A7EAB1E40E94DA
:103D0000341F6B017C01ACEEB4EFA50194010E945D
:103D1000421FC60ED71EE81EF91EF7FE06C081E040
:103D2000C81AD108E10880E8F80AC882D982EA8274
:103D3000FB82C701B6019F77DF91CF91FF90EF9093
:103D4000DF90CF90BF90AF909F908F9008958F920B
:103D50009F92AF92BF92CF92DF92EF92FF926091CB
:103D60001A0170911B0180911C0190911D01611538
:103D700071058105910521F464E279ED8BE597E009
:103D80002DE133EF41E050E00E94151F49015A0137
:103D90009B01AC01A7EAB1E40E94341F6B017C01D6
:103DA000ACEEB4EFA50194010E94421FC60ED71ECF
:103DB000E81EF91EF7FE06C081E0C81AD108E10826
:103DC00080E8F80AC0921A01D0921B01E0921C010F
:103DD000F0921D01C701B6019F77FF90EF90DF9031
:103DE000CF90BF90AF909F908F90089560931A01ED
:103DF00070931B0180931C0190931D010895F99904
:103E0000FECF92BD81BDF89A992780B50895262FDF
:103E1000F999FECF1FBA92BD81BD20BD0FB6F894AF
:103E2000FA9AF99A0FBE01960895052E97FB1EF493
:103E300000940E942C1F57FD07D00E94471F07FCCB
:103E400003D04EF40C942C1F50954095309521953D
:103E50003F4F4F4F5F4F08959095809570956195B6
:103E60007F4F8F4F9F4F08950E94691FA59F900D10
:103E7000B49F900DA49F800D911D11240895B7FF4C
:103E80000C94341F0E94341F821B930B0895A1E2EF
:103E90001A2EAA1BBB1BFD010DC0AA1FBB1FEE1FC4
:103EA000FF1FA217B307E407F50720F0A21BB30B0F
:103EB000E40BF50B661F771F881F991F1A9469F78B
:103EC00060957095809590959B01AC01BD01CF01E7
:103ED0000895A29FB001B39FC001A39F700D811DE3
:103EE0001124911DB29F700D811D1124911D089503
:103EF00097FB072E16F4009407D077FD09D00E9497
:103F0000921F07FC05D03EF4909581959F4F089530
:103F1000709561957F4F0895EE0FFF1F0590F49106
:103F2000E02D0994AA1BBB1B51E107C0AA1FBB1FB0
:103F3000A617B70710F0A61BB70B881F991F5A9535
:103F4000A9F780959095BC01CD010895F894FFCF15
:103F500010200001000100010002000101FFFFFF2D
:103F6000FF00E1000000000000FF01000000000071
:103F70000100020003000B029302100393021003DE
:103F80007003100393020B029302100370031704D3
:103F9000700310039302C800C800C800C800C8001E
:103FA0009001C800C800C800C800C800C80090013F
:103FB000C800C800900100C180810000000000001E
:103FC00000040C6F0D250C1A0C6B0C290C470C000F
:103FD000000000F60E000E17121612507265737371
:103FE000204120746F2073746172740043484F4FF6
:103FF000534520594F555220545249424500507262
:10400000657373204220746F2073656C6563740060
:10401000506F696E74733A200053706565643A207E
:104020000046494E495348004120746F2072657321
:06403000746172740000CF
:00000001FF
